{
  "_format": "hh-sol-artifact-1",
  "contractName": "MarketPlace",
  "sourceName": "contracts/MarketPlace.sol",
  "abi": [
    {
      "inputs": [
        {
          "internalType": "string",
          "name": "_name",
          "type": "string"
        },
        {
          "internalType": "uint256",
          "name": "_value",
          "type": "uint256"
        },
        {
          "internalType": "uint16",
          "name": "_stock",
          "type": "uint16"
        }
      ],
      "name": "addProduct",
      "outputs": [],
      "stateMutability": "nonpayable",
      "type": "function"
    },
    {
      "inputs": [
        {
          "internalType": "uint16",
          "name": "_productId",
          "type": "uint16"
        },
        {
          "internalType": "uint16",
          "name": "_quantity",
          "type": "uint16"
        }
      ],
      "name": "buyProduct",
      "outputs": [],
      "stateMutability": "payable",
      "type": "function"
    },
    {
      "inputs": [
        {
          "internalType": "uint16",
          "name": "id",
          "type": "uint16"
        },
        {
          "internalType": "string",
          "name": "_name",
          "type": "string"
        },
        {
          "internalType": "uint256",
          "name": "_value",
          "type": "uint256"
        },
        {
          "internalType": "uint16",
          "name": "_stock",
          "type": "uint16"
        }
      ],
      "name": "editProduct",
      "outputs": [],
      "stateMutability": "nonpayable",
      "type": "function"
    },
    {
      "inputs": [
        {
          "internalType": "address",
          "name": "",
          "type": "address"
        },
        {
          "internalType": "uint256",
          "name": "",
          "type": "uint256"
        }
      ],
      "name": "orderReference",
      "outputs": [
        {
          "internalType": "uint16",
          "name": "",
          "type": "uint16"
        }
      ],
      "stateMutability": "view",
      "type": "function"
    },
    {
      "inputs": [
        {
          "internalType": "address",
          "name": "",
          "type": "address"
        },
        {
          "internalType": "uint256",
          "name": "",
          "type": "uint256"
        }
      ],
      "name": "productReference",
      "outputs": [
        {
          "internalType": "uint16",
          "name": "",
          "type": "uint16"
        }
      ],
      "stateMutability": "view",
      "type": "function"
    },
    {
      "inputs": [
        {
          "internalType": "uint16",
          "name": "",
          "type": "uint16"
        }
      ],
      "name": "products",
      "outputs": [
        {
          "internalType": "address",
          "name": "seller",
          "type": "address"
        },
        {
          "internalType": "string",
          "name": "name",
          "type": "string"
        },
        {
          "internalType": "uint256",
          "name": "value",
          "type": "uint256"
        },
        {
          "internalType": "uint16",
          "name": "stock",
          "type": "uint16"
        }
      ],
      "stateMutability": "view",
      "type": "function"
    },
    {
      "inputs": [
        {
          "internalType": "uint16",
          "name": "",
          "type": "uint16"
        }
      ],
      "name": "requests",
      "outputs": [
        {
          "internalType": "address",
          "name": "buyer",
          "type": "address"
        },
        {
          "components": [
            {
              "internalType": "address",
              "name": "seller",
              "type": "address"
            },
            {
              "internalType": "string",
              "name": "name",
              "type": "string"
            },
            {
              "internalType": "uint256",
              "name": "value",
              "type": "uint256"
            },
            {
              "internalType": "uint16",
              "name": "stock",
              "type": "uint16"
            }
          ],
          "internalType": "struct MarketPlace.Product",
          "name": "product",
          "type": "tuple"
        },
        {
          "internalType": "uint16",
          "name": "quantity",
          "type": "uint16"
        },
        {
          "internalType": "uint256",
          "name": "totalValue",
          "type": "uint256"
        }
      ],
      "stateMutability": "view",
      "type": "function"
    }
  ],
  "bytecode": "0x608060405260008060006101000a81548161ffff021916908361ffff16021790555060008060026101000a81548161ffff021916908361ffff160217905550348015604957600080fd5b50611c34806100596000396000f3fe6080604052600436106100705760003560e01c8063803bee281161004e578063803bee281461011b578063964c7fc314610144578063a8f8a37614610184578063acbae862146101c157610070565b80634e3e4340146100755780635cea12491461009e5780637ddc243e146100db575b600080fd5b34801561008157600080fd5b5061009c60048036038101906100979190611139565b6101dd565b005b3480156100aa57600080fd5b506100c560048036038101906100c09190611206565b6103a2565b6040516100d29190611255565b60405180910390f35b3480156100e757600080fd5b5061010260048036038101906100fd9190611270565b6103e9565b60405161011294939291906113ca565b60405180910390f35b34801561012757600080fd5b50610142600480360381019061013d9190611416565b610563565b005b34801561015057600080fd5b5061016b60048036038101906101669190611270565b6107e8565b60405161017b94939291906114e3565b60405180910390f35b34801561019057600080fd5b506101ab60048036038101906101a69190611206565b6108ce565b6040516101b89190611255565b60405180910390f35b6101db60048036038101906101d6919061152f565b610915565b005b60016000808282829054906101000a900461ffff166101fc919061159e565b92506101000a81548161ffff021916908361ffff16021790555060405180608001604052803373ffffffffffffffffffffffffffffffffffffffff1681526020018481526020018381526020018261ffff16815250600360008060009054906101000a900461ffff1661ffff1661ffff16815260200190815260200160002060008201518160000160006101000a81548173ffffffffffffffffffffffffffffffffffffffff021916908373ffffffffffffffffffffffffffffffffffffffff16021790555060208201518160010190816102d791906117e0565b506040820151816002015560608201518160030160006101000a81548161ffff021916908361ffff160217905550905050600160003373ffffffffffffffffffffffffffffffffffffffff1673ffffffffffffffffffffffffffffffffffffffff16815260200190815260200160002060008054906101000a900461ffff1690806001815401808255809150506001900390600052602060002090601091828204019190066002029091909190916101000a81548161ffff021916908361ffff160217905550505050565b600260205281600052604060002081815481106103be57600080fd5b9060005260206000209060109182820401919006600202915091509054906101000a900461ffff1681565b60046020528060005260406000206000915090508060000160009054906101000a900473ffffffffffffffffffffffffffffffffffffffff1690806001016040518060800160405290816000820160009054906101000a900473ffffffffffffffffffffffffffffffffffffffff1673ffffffffffffffffffffffffffffffffffffffff1673ffffffffffffffffffffffffffffffffffffffff16815260200160018201805461049890611603565b80601f01602080910402602001604051908101604052809291908181526020018280546104c490611603565b80156105115780601f106104e657610100808354040283529160200191610511565b820191906000526020600020905b8154815290600101906020018083116104f457829003601f168201915b50505050508152602001600282015481526020016003820160009054906101000a900461ffff1661ffff1661ffff1681525050908060050160009054906101000a900461ffff16908060060154905084565b6000600360008661ffff1661ffff1681526020019081526020016000206040518060800160405290816000820160009054906101000a900473ffffffffffffffffffffffffffffffffffffffff1673ffffffffffffffffffffffffffffffffffffffff1673ffffffffffffffffffffffffffffffffffffffff1681526020016001820180546105f190611603565b80601f016020809104026020016040519081016040528092919081815260200182805461061d90611603565b801561066a5780601f1061063f5761010080835404028352916020019161066a565b820191906000526020600020905b81548152906001019060200180831161064d57829003601f168201915b50505050508152602001600282015481526020016003820160009054906101000a900461ffff1661ffff1661ffff168152505090503373ffffffffffffffffffffffffffffffffffffffff16816000015173ffffffffffffffffffffffffffffffffffffffff1614610711576040517f08c379a0000000000000000000000000000000000000000000000000000000008152600401610708906118fe565b60405180910390fd5b8381602001819052508281604001818152505081816060019061ffff16908161ffff168152505080600360008761ffff1661ffff16815260200190815260200160002060008201518160000160006101000a81548173ffffffffffffffffffffffffffffffffffffffff021916908373ffffffffffffffffffffffffffffffffffffffff16021790555060208201518160010190816107b091906117e0565b506040820151816002015560608201518160030160006101000a81548161ffff021916908361ffff1602179055509050505050505050565b60036020528060005260406000206000915090508060000160009054906101000a900473ffffffffffffffffffffffffffffffffffffffff169080600101805461083190611603565b80601f016020809104026020016040519081016040528092919081815260200182805461085d90611603565b80156108aa5780601f1061087f576101008083540402835291602001916108aa565b820191906000526020600020905b81548152906001019060200180831161088d57829003601f168201915b5050505050908060020154908060030160009054906101000a900461ffff16905084565b600160205281600052604060002081815481106108ea57600080fd5b9060005260206000209060109182820401919006600202915091509054906101000a900461ffff1681565b60008054906101000a900461ffff1661ffff168261ffff16111561096e576040517f08c379a00000000000000000000000000000000000000000000000000000000081526004016109659061196a565b60405180910390fd5b6000600360008461ffff1661ffff1681526020019081526020016000206040518060800160405290816000820160009054906101000a900473ffffffffffffffffffffffffffffffffffffffff1673ffffffffffffffffffffffffffffffffffffffff1673ffffffffffffffffffffffffffffffffffffffff1681526020016001820180546109fc90611603565b80601f0160208091040260200160405190810160405280929190818152602001828054610a2890611603565b8015610a755780601f10610a4a57610100808354040283529160200191610a75565b820191906000526020600020905b815481529060010190602001808311610a5857829003601f168201915b50505050508152602001600282015481526020016003820160009054906101000a900461ffff1661ffff1661ffff16815250509050806000015173ffffffffffffffffffffffffffffffffffffffff163373ffffffffffffffffffffffffffffffffffffffff1603610b1c576040517f08c379a0000000000000000000000000000000000000000000000000000000008152600401610b13906119fc565b60405180910390fd5b6000816060015161ffff1603610b67576040517f08c379a0000000000000000000000000000000000000000000000000000000008152600401610b5e90611a68565b60405180910390fd5b806060015161ffff168261ffff161115610bb6576040517f08c379a0000000000000000000000000000000000000000000000000000000008152600401610bad90611afa565b60405180910390fd5b60008261ffff168260400151610bcc9190611b1a565b9050803414610c10576040517f08c379a0000000000000000000000000000000000000000000000000000000008152600401610c0790611ba8565b60405180910390fd5b816000015173ffffffffffffffffffffffffffffffffffffffff166108fc349081150290604051600060405180830381858888f19350505050158015610c5a573d6000803e3d6000fd5b506001600060028282829054906101000a900461ffff16610c7b919061159e565b92506101000a81548161ffff021916908361ffff16021790555060405180608001604052803373ffffffffffffffffffffffffffffffffffffffff1681526020018381526020018461ffff16815260200134815250600460008060029054906101000a900461ffff1661ffff1661ffff16815260200190815260200160002060008201518160000160006101000a81548173ffffffffffffffffffffffffffffffffffffffff021916908373ffffffffffffffffffffffffffffffffffffffff16021790555060208201518160010160008201518160000160006101000a81548173ffffffffffffffffffffffffffffffffffffffff021916908373ffffffffffffffffffffffffffffffffffffffff1602179055506020820151816001019081610da691906117e0565b506040820151816002015560608201518160030160006101000a81548161ffff021916908361ffff160217905550505060408201518160050160006101000a81548161ffff021916908361ffff16021790555060608201518160060155905050600260003373ffffffffffffffffffffffffffffffffffffffff1673ffffffffffffffffffffffffffffffffffffffff168152602001908152602001600020600060029054906101000a900461ffff1690806001815401808255809150506001900390600052602060002090601091828204019190066002029091909190916101000a81548161ffff021916908361ffff160217905550828260600151610ead9190611bc8565b826060019061ffff16908161ffff168152505081600360008661ffff1661ffff16815260200190815260200160002060008201518160000160006101000a81548173ffffffffffffffffffffffffffffffffffffffff021916908373ffffffffffffffffffffffffffffffffffffffff1602179055506020820151816001019081610f3891906117e0565b506040820151816002015560608201518160030160006101000a81548161ffff021916908361ffff16021790555090505050505050565b6000604051905090565b600080fd5b600080fd5b600080fd5b600080fd5b6000601f19601f8301169050919050565b7f4e487b7100000000000000000000000000000000000000000000000000000000600052604160045260246000fd5b610fd682610f8d565b810181811067ffffffffffffffff82111715610ff557610ff4610f9e565b5b80604052505050565b6000611008610f6f565b90506110148282610fcd565b919050565b600067ffffffffffffffff82111561103457611033610f9e565b5b61103d82610f8d565b9050602081019050919050565b82818337600083830152505050565b600061106c61106784611019565b610ffe565b90508281526020810184848401111561108857611087610f88565b5b61109384828561104a565b509392505050565b600082601f8301126110b0576110af610f83565b5b81356110c0848260208601611059565b91505092915050565b6000819050919050565b6110dc816110c9565b81146110e757600080fd5b50565b6000813590506110f9816110d3565b92915050565b600061ffff82169050919050565b611116816110ff565b811461112157600080fd5b50565b6000813590506111338161110d565b92915050565b60008060006060848603121561115257611151610f79565b5b600084013567ffffffffffffffff8111156111705761116f610f7e565b5b61117c8682870161109b565b935050602061118d868287016110ea565b925050604061119e86828701611124565b9150509250925092565b600073ffffffffffffffffffffffffffffffffffffffff82169050919050565b60006111d3826111a8565b9050919050565b6111e3816111c8565b81146111ee57600080fd5b50565b600081359050611200816111da565b92915050565b6000806040838503121561121d5761121c610f79565b5b600061122b858286016111f1565b925050602061123c858286016110ea565b9150509250929050565b61124f816110ff565b82525050565b600060208201905061126a6000830184611246565b92915050565b60006020828403121561128657611285610f79565b5b600061129484828501611124565b91505092915050565b6112a6816111c8565b82525050565b6112b5816111c8565b82525050565b600081519050919050565b600082825260208201905092915050565b60005b838110156112f55780820151818401526020810190506112da565b60008484015250505050565b600061130c826112bb565b61131681856112c6565b93506113268185602086016112d7565b61132f81610f8d565b840191505092915050565b611343816110c9565b82525050565b611352816110ff565b82525050565b600060808301600083015161137060008601826112ac565b50602083015184820360208601526113888282611301565b915050604083015161139d604086018261133a565b5060608301516113b06060860182611349565b508091505092915050565b6113c4816110c9565b82525050565b60006080820190506113df600083018761129d565b81810360208301526113f18186611358565b90506114006040830185611246565b61140d60608301846113bb565b95945050505050565b600080600080608085870312156114305761142f610f79565b5b600061143e87828801611124565b945050602085013567ffffffffffffffff81111561145f5761145e610f7e565b5b61146b8782880161109b565b935050604061147c878288016110ea565b925050606061148d87828801611124565b91505092959194509250565b600082825260208201905092915050565b60006114b5826112bb565b6114bf8185611499565b93506114cf8185602086016112d7565b6114d881610f8d565b840191505092915050565b60006080820190506114f8600083018761129d565b818103602083015261150a81866114aa565b905061151960408301856113bb565b6115266060830184611246565b95945050505050565b6000806040838503121561154657611545610f79565b5b600061155485828601611124565b925050602061156585828601611124565b9150509250929050565b7f4e487b7100000000000000000000000000000000000000000000000000000000600052601160045260246000fd5b60006115a9826110ff565b91506115b4836110ff565b9250828201905061ffff8111156115ce576115cd61156f565b5b92915050565b7f4e487b7100000000000000000000000000000000000000000000000000000000600052602260045260246000fd5b6000600282049050600182168061161b57607f821691505b60208210810361162e5761162d6115d4565b5b50919050565b60008190508160005260206000209050919050565b60006020601f8301049050919050565b600082821b905092915050565b6000600883026116967fffffffffffffffffffffffffffffffffffffffffffffffffffffffffffffffff82611659565b6116a08683611659565b95508019841693508086168417925050509392505050565b6000819050919050565b60006116dd6116d86116d3846110c9565b6116b8565b6110c9565b9050919050565b6000819050919050565b6116f7836116c2565b61170b611703826116e4565b848454611666565b825550505050565b600090565b611720611713565b61172b8184846116ee565b505050565b5b8181101561174f57611744600082611718565b600181019050611731565b5050565b601f8211156117945761176581611634565b61176e84611649565b8101602085101561177d578190505b61179161178985611649565b830182611730565b50505b505050565b600082821c905092915050565b60006117b760001984600802611799565b1980831691505092915050565b60006117d083836117a6565b9150826002028217905092915050565b6117e9826112bb565b67ffffffffffffffff81111561180257611801610f9e565b5b61180c8254611603565b611817828285611753565b600060209050601f83116001811461184a5760008415611838578287015190505b61184285826117c4565b8655506118aa565b601f19841661185886611634565b60005b828110156118805784890151825560018201915060208501945060208101905061185b565b8683101561189d5784890151611899601f8916826117a6565b8355505b6001600288020188555050505b505050505050565b7f41636573736f204e656761646f00000000000000000000000000000000000000600082015250565b60006118e8600d83611499565b91506118f3826118b2565b602082019050919050565b60006020820190508181036000830152611917816118db565b9050919050565b7f50726f6475746f206e616f206578697374650000000000000000000000000000600082015250565b6000611954601283611499565b915061195f8261191e565b602082019050919050565b6000602082019050818103600083015261198381611947565b9050919050565b7f56656e6465646f72206e616f20706f646520636f6d70726172206f2070726f7060008201527f72696f2070726f6475746f000000000000000000000000000000000000000000602082015250565b60006119e6602b83611499565b91506119f18261198a565b604082019050919050565b60006020820190508181036000830152611a15816119d9565b9050919050565b7f4573746f717565207a657261646f000000000000000000000000000000000000600082015250565b6000611a52600e83611499565b9150611a5d82611a1c565b602082019050919050565b60006020820190508181036000830152611a8181611a45565b9050919050565b7f4e616f2068612065737361207175616e746964616465206465202070726f647560008201527f746f73206e6f206573746f717565000000000000000000000000000000000000602082015250565b6000611ae4602e83611499565b9150611aef82611a88565b604082019050919050565b60006020820190508181036000830152611b1381611ad7565b9050919050565b6000611b25826110c9565b9150611b30836110c9565b9250828202611b3e816110c9565b91508282048414831517611b5557611b5461156f565b5b5092915050565b7f56616c6f7220696e737566696369656e7465207061726120636f6d7072610000600082015250565b6000611b92601e83611499565b9150611b9d82611b5c565b602082019050919050565b60006020820190508181036000830152611bc181611b85565b9050919050565b6000611bd3826110ff565b9150611bde836110ff565b9250828203905061ffff811115611bf857611bf761156f565b5b9291505056fea2646970667358221220b945505af691062f2ef134a283a99fb54c194a39d60300be4453f2ba2b3ff0ae64736f6c634300081c0033",
  "linkReferences": {},
  "deployedLinkReferences": {}
}