{
  "_format": "hh-sol-artifact-1",
  "contractName": "Posts",
  "sourceName": "contracts/Posts.sol",
  "abi": [
    {
      "inputs": [
        {
          "internalType": "string",
          "name": "_title",
          "type": "string"
        },
        {
          "internalType": "string",
          "name": "_description",
          "type": "string"
        }
      ],
      "name": "addPosts",
      "outputs": [],
      "stateMutability": "nonpayable",
      "type": "function"
    },
    {
      "inputs": [
        {
          "internalType": "uint32",
          "name": "index",
          "type": "uint32"
        }
      ],
      "name": "deletePost",
      "outputs": [],
      "stateMutability": "nonpayable",
      "type": "function"
    },
    {
      "inputs": [
        {
          "internalType": "address",
          "name": "wallet",
          "type": "address"
        }
      ],
      "name": "getPostsFromAddress",
      "outputs": [
        {
          "components": [
            {
              "internalType": "string",
              "name": "title",
              "type": "string"
            },
            {
              "internalType": "string",
              "name": "description",
              "type": "string"
            }
          ],
          "internalType": "struct Posts.Post[]",
          "name": "",
          "type": "tuple[]"
        }
      ],
      "stateMutability": "view",
      "type": "function"
    },
    {
      "inputs": [
        {
          "internalType": "address",
          "name": "",
          "type": "address"
        },
        {
          "internalType": "uint256",
          "name": "",
          "type": "uint256"
        }
      ],
      "name": "posts",
      "outputs": [
        {
          "internalType": "string",
          "name": "title",
          "type": "string"
        },
        {
          "internalType": "string",
          "name": "description",
          "type": "string"
        }
      ],
      "stateMutability": "view",
      "type": "function"
    },
    {
      "inputs": [
        {
          "internalType": "uint32",
          "name": "index",
          "type": "uint32"
        },
        {
          "internalType": "string",
          "name": "_title",
          "type": "string"
        },
        {
          "internalType": "string",
          "name": "_description",
          "type": "string"
        }
      ],
      "name": "updatePost",
      "outputs": [],
      "stateMutability": "nonpayable",
      "type": "function"
    }
  ],
  "bytecode": "0x6080604052348015600f57600080fd5b50610f9d8061001f6000396000f3fe608060405234801561001057600080fd5b50600436106100575760003560e01c80635c538df31461005c57806361d96e161461008d5780639ab43aa6146100a9578063c60fa0fa146100c5578063d82de99b146100f5575b600080fd5b61007660048036038101906100719190610713565b610111565b6040516100849291906107e3565b60405180910390f35b6100a760048036038101906100a2919061098b565b610262565b005b6100c360048036038101906100be9190610a16565b61030f565b005b6100df60048036038101906100da9190610a8e565b6103bd565b6040516100ec9190610c0b565b60405180910390f35b61010f600480360381019061010a9190610c2d565b610584565b005b6000602052816000526040600020818154811061012d57600080fd5b90600052602060002090600202016000915091505080600001805461015190610c89565b80601f016020809104026020016040519081016040528092919081815260200182805461017d90610c89565b80156101ca5780601f1061019f576101008083540402835291602001916101ca565b820191906000526020600020905b8154815290600101906020018083116101ad57829003601f168201915b5050505050908060010180546101df90610c89565b80601f016020809104026020016040519081016040528092919081815260200182805461020b90610c89565b80156102585780601f1061022d57610100808354040283529160200191610258565b820191906000526020600020905b81548152906001019060200180831161023b57829003601f168201915b5050505050905082565b6040518060400160405280838152602001828152506000803373ffffffffffffffffffffffffffffffffffffffff1673ffffffffffffffffffffffffffffffffffffffff1681526020019081526020016000208463ffffffff16815481106102cd576102cc610cba565b5b906000526020600020906002020160008201518160000190816102f09190610e95565b5060208201518160010190816103069190610e95565b50905050505050565b6000803373ffffffffffffffffffffffffffffffffffffffff1673ffffffffffffffffffffffffffffffffffffffff168152602001908152602001600020604051806040016040528084815260200183815250908060018154018082558091505060019003906000526020600020906002020160009091909190915060008201518160000190816103a09190610e95565b5060208201518160010190816103b69190610e95565b5050505050565b606060008060008473ffffffffffffffffffffffffffffffffffffffff1673ffffffffffffffffffffffffffffffffffffffff168152602001908152602001600020805480602002602001604051908101604052809291908181526020016000905b82821015610575578382906000526020600020906002020160405180604001604052908160008201805461045290610c89565b80601f016020809104026020016040519081016040528092919081815260200182805461047e90610c89565b80156104cb5780601f106104a0576101008083540402835291602001916104cb565b820191906000526020600020905b8154815290600101906020018083116104ae57829003601f168201915b505050505081526020016001820180546104e490610c89565b80601f016020809104026020016040519081016040528092919081815260200182805461051090610c89565b801561055d5780601f106105325761010080835404028352916020019161055d565b820191906000526020600020905b81548152906001019060200180831161054057829003601f168201915b5050505050815250508152602001906001019061041f565b50505050905080915050919050565b6000803373ffffffffffffffffffffffffffffffffffffffff1673ffffffffffffffffffffffffffffffffffffffff1681526020019081526020016000208163ffffffff16815481106105da576105d9610cba565b5b9060005260206000209060020201600080820160006105f9919061060e565b600182016000610609919061060e565b505050565b50805461061a90610c89565b6000825580601f1061062c575061064b565b601f01602090049060005260206000209081019061064a919061064e565b5b50565b5b8082111561066757600081600090555060010161064f565b5090565b6000604051905090565b600080fd5b600080fd5b600073ffffffffffffffffffffffffffffffffffffffff82169050919050565b60006106aa8261067f565b9050919050565b6106ba8161069f565b81146106c557600080fd5b50565b6000813590506106d7816106b1565b92915050565b6000819050919050565b6106f0816106dd565b81146106fb57600080fd5b50565b60008135905061070d816106e7565b92915050565b6000806040838503121561072a57610729610675565b5b6000610738858286016106c8565b9250506020610749858286016106fe565b9150509250929050565b600081519050919050565b600082825260208201905092915050565b60005b8381101561078d578082015181840152602081019050610772565b60008484015250505050565b6000601f19601f8301169050919050565b60006107b582610753565b6107bf818561075e565b93506107cf81856020860161076f565b6107d881610799565b840191505092915050565b600060408201905081810360008301526107fd81856107aa565b9050818103602083015261081181846107aa565b90509392505050565b600063ffffffff82169050919050565b6108338161081a565b811461083e57600080fd5b50565b6000813590506108508161082a565b92915050565b600080fd5b600080fd5b7f4e487b7100000000000000000000000000000000000000000000000000000000600052604160045260246000fd5b61089882610799565b810181811067ffffffffffffffff821117156108b7576108b6610860565b5b80604052505050565b60006108ca61066b565b90506108d6828261088f565b919050565b600067ffffffffffffffff8211156108f6576108f5610860565b5b6108ff82610799565b9050602081019050919050565b82818337600083830152505050565b600061092e610929846108db565b6108c0565b90508281526020810184848401111561094a5761094961085b565b5b61095584828561090c565b509392505050565b600082601f83011261097257610971610856565b5b813561098284826020860161091b565b91505092915050565b6000806000606084860312156109a4576109a3610675565b5b60006109b286828701610841565b935050602084013567ffffffffffffffff8111156109d3576109d261067a565b5b6109df8682870161095d565b925050604084013567ffffffffffffffff811115610a00576109ff61067a565b5b610a0c8682870161095d565b9150509250925092565b60008060408385031215610a2d57610a2c610675565b5b600083013567ffffffffffffffff811115610a4b57610a4a61067a565b5b610a578582860161095d565b925050602083013567ffffffffffffffff811115610a7857610a7761067a565b5b610a848582860161095d565b9150509250929050565b600060208284031215610aa457610aa3610675565b5b6000610ab2848285016106c8565b91505092915050565b600081519050919050565b600082825260208201905092915050565b6000819050602082019050919050565b600082825260208201905092915050565b6000610b0382610753565b610b0d8185610ae7565b9350610b1d81856020860161076f565b610b2681610799565b840191505092915050565b60006040830160008301518482036000860152610b4e8282610af8565b91505060208301518482036020860152610b688282610af8565b9150508091505092915050565b6000610b818383610b31565b905092915050565b6000602082019050919050565b6000610ba182610abb565b610bab8185610ac6565b935083602082028501610bbd85610ad7565b8060005b85811015610bf95784840389528151610bda8582610b75565b9450610be583610b89565b925060208a01995050600181019050610bc1565b50829750879550505050505092915050565b60006020820190508181036000830152610c258184610b96565b905092915050565b600060208284031215610c4357610c42610675565b5b6000610c5184828501610841565b91505092915050565b7f4e487b7100000000000000000000000000000000000000000000000000000000600052602260045260246000fd5b60006002820490506001821680610ca157607f821691505b602082108103610cb457610cb3610c5a565b5b50919050565b7f4e487b7100000000000000000000000000000000000000000000000000000000600052603260045260246000fd5b60008190508160005260206000209050919050565b60006020601f8301049050919050565b600082821b905092915050565b600060088302610d4b7fffffffffffffffffffffffffffffffffffffffffffffffffffffffffffffffff82610d0e565b610d558683610d0e565b95508019841693508086168417925050509392505050565b6000819050919050565b6000610d92610d8d610d88846106dd565b610d6d565b6106dd565b9050919050565b6000819050919050565b610dac83610d77565b610dc0610db882610d99565b848454610d1b565b825550505050565b600090565b610dd5610dc8565b610de0818484610da3565b505050565b5b81811015610e0457610df9600082610dcd565b600181019050610de6565b5050565b601f821115610e4957610e1a81610ce9565b610e2384610cfe565b81016020851015610e32578190505b610e46610e3e85610cfe565b830182610de5565b50505b505050565b600082821c905092915050565b6000610e6c60001984600802610e4e565b1980831691505092915050565b6000610e858383610e5b565b9150826002028217905092915050565b610e9e82610753565b67ffffffffffffffff811115610eb757610eb6610860565b5b610ec18254610c89565b610ecc828285610e08565b600060209050601f831160018114610eff5760008415610eed578287015190505b610ef78582610e79565b865550610f5f565b601f198416610f0d86610ce9565b60005b82811015610f3557848901518255600182019150602085019450602081019050610f10565b86831015610f525784890151610f4e601f891682610e5b565b8355505b6001600288020188555050505b50505050505056fea264697066735822122027d41d622c5c09c3be5b6cf574f12ea8ba9bc9c138664719af46426714b9f98964736f6c634300081c0033",
  "linkReferences": {},
  "deployedLinkReferences": {}
}